:020000001028C6
:10000800FE00030EF1000408F2000A08F300831250
:1000180003137F08F400C92C11281825BB00B70169
:10002800B801B901BA0183011928073083120313F3
:100038009F0033308316031385003F3086008113F9
:100048008312031385150515903098002430831604
:1000580003139800193099000B308312031397008B
:100068007F309600FF3095000F3090008B170B17EC
:10007800831603130C1583120313BA01B901B801CF
:10008800063083120313B6001330B500AD30B40048
:10009800B40B4C28B50B4C28B60B4C280000B024E8
:1000A800202483120313A001A00A0330B4003408EB
:1000B800A1000A30AE2083120313A001A00A063063
:1000C800B4003408A1000A30AE20DC233C2183129E
:1000D8000313861E851C71287E2283120313061AB9
:1000E800A828013083120313B4003408BA073C303F
:1000F8003A020318BA013C21033083120313B600F5
:100108008A30B5005530B400B40B8828B50B882860
:10011800B60B8828000071280130B4003408B807ED
:10012800183038020318B8013C2103308312031336
:10013800B6008A30B5005530B400B40BA128B50B11
:10014800A128B60BA128000083120313861D90284E
:1001580089246B2883120313A4002030EC24013077
:10016800EC242130EC240D3083120313A200220862
:10017800F5002108DB24EC240D3083120313A200C0
:100188002208F5002108DB24093EEC242230EC2467
:10019800831203132008EC24831203132008013E62
:1001A800EC240E25831203133B085A2440305A24AA
:1001B80083120313A70105302702031836290530D7
:1001C800A2002208F5002408DB2483120313270762
:1001D8003D3E84000022A3002308A800A601A50133
:1001E800281FFA28C030A2002208A607A81E002946
:1001F8003030A2002208A607281E06290C30A200CB
:100208002208A607A81D0C290330A2002208A60769
:10021800281D1229C030A2002208A507A81C1829E9
:100228003030A2002208A507281C1E290C30A20085
:100238002208A50725085A248312031326085A24DE
:100248008312031325085A248312031326085A24F9
:10025800013083120313A2002208A70705302702E2
:10026800031CE32804252030EC240030EC2408008B
:100278000A3083120313A5000030A6000A30F500E7
:100288000030F6003808AC00AD012C08F7002D0846
:10029800F800E722760883120313A8007508A70060
:1002A8004223831203132508AE002E08AF000A303C
:1002B800A5000030A6003808AC00AD012C08A70046
:1002C8002D08A8004223831203132508AE002E0828
:1002D800B0000A30A5000030A6000A30F500003052
:1002E800F6003A08AC00AD012C08F7002D08F8001C
:1002F800E722760883120313A8007508A700422393
:10030800831203132508AE002E08B1000A30A50099
:100318000030A6003A08AC00AD012C08A7002D0853
:10032800A8004223831203132508AE002E08B2004A
:10033800A001A00AA101A10A2F08AE20831203136D
:10034800A001A00A0230AC002C08A1003008AE20A1
:1003580083120313A001A00A0430AC002C08A100EA
:100368003108AE2083120313A001A00A0530AC00A7
:0A0378002C08A1003208AE20080096
:1004000002308A000408840A820700343E344134F2
:10041000413441343E34003442347F34403400347B
:100420004234613451344934463421344134453402
:100430004B3431341834143412347F3410342734AC
:1004400045344534453439343C344A3449344934EC
:1004500030340134713409340534033436344934CA
:1004600049344934363406344934493429341E3445
:100470000034363436340034003400340034003470
:10048000003400343E344134413441343E3400348D
:1004900042347F344034003442346134513449347E
:1004A00046342134413445344B3431341834143417
:1004B00012347F34103427344534453445343934CC
:1004C0003C344A34493449343034013471340934C9
:1004D0000534033436344934493449343634063427
:1004E0004934493429341E34003436343634003427
:1004F00000340034003400340034003415308312EA
:1005000003133802031C8B2A15308F238312031325
:100510003808ED3E8F2A831203133808013E8F23DB
:10052000892419308F2389241530831203133A024A
:1005300003189D2A3A08013E8F23153083120313B6
:100540003A02031CAE2A1E303A020318AE2A1530B6
:100550008F23831203133A08ED3E8F231F3083123B
:1005600003133A02031CBF2A28303A020318BF2A99
:1005700016308F23831203133A08E33E8F2329306A
:10058000831203133A02031CD02A32303A020318B2
:10059000D02A17308F23831203133A08D93E8F23B2
:1005A0003330831203133A02031CE12A3C303A022F
:1005B0000318E12A18308F23831203133A08CF3E21
:1005C0008F2389241A308F231B308F230800831236
:1005D0000313A201F61FF32AF509F609F50A031918
:1005E000F60AA201A20AF81FFE2AF709F809F70A7B
:1005F0000319F80A0130A0002008A206A301A401F3
:10060000750876040319352BA101A10AF61B142BDA
:1006100001300310F50DF60DFF3E031D092B0130CF
:10062000A0002008A107062B01300310A30DA40D84
:10063000FF3E031D152B76087802031D212B75083C
:100640007702031C2A2B7508F7027608031CF803AF
:10065000F802231401300310F60CF50CFF3E031DC5
:100660002B2B0130A102031D142B220803193D2B53
:10067000A309A409A30A0319A40A2408F60023085D
:10068000F500080083120313AB01A81F4E2BA70926
:10069000A809A70A0319A80AAB01AB0AA61F552B84
:1006A000A509A609A50A0319A60A250826040319FF
:1006B000822BAA01AA0AA61B692B01300310A50DE3
:1006C000A60DFF3E031D5E2B0130A9002908AA07D5
:1006D0005B2B26082802031D6F2B25082702031C0D
:1006E000772B2508A7022608031CA803A8020130BF
:1006F0000310A60CA50CFF3E031D782B0130AA02A7
:10070000031D692B2B0803198A2BA709A809A70A1F
:100710000319A80A2808A6002708A5000800F70062
:1007200083120313851C902B83160313981C942BA0
:100730007E3083120313990083160313981C9C2B9D
:10074000FF3083120313990083160313981CA42B04
:10075000063083120313990083160313981CAC2BE5
:10076000033083120313990083160313981CB42BD0
:1007700083120313990183160313981CBB2B831256
:100780000313990183160313981CC22B7708831255
:100790000313990083160313981CCA2BEF3083129E
:1007A000031399008230F600DD30F500F50BD62BEF
:1007B000F60BD62BDB2B08000A3083120313A5009F
:1007C0000030A6000A30F5000030F6003908AC0011
:1007D000AD012C08F7002D08F800E72276088312F7
:1007E0000313A8007508A7004223831203132508EA
:1007F000AE002E08AF000A30A5000030A600390870
:10080000AC00AD012C08A7002D08A80042238312DC
:1008100003132508AE002E08B000A001A00A07307F
:10082000AC002C08A1002F08AE2083120313A001F6
:10083000A00A0830AC002C08A1003008AE20080047
:1008400083120313A201083022020318080021308A
:10085000EC240030EC247F30EC242230EC24831292
:1008600003132208EC24831203132208013EEC2414
:100870000E25831203133B085A2440305A24831256
:100880000313A101803021020318522C00305A2496
:10089000013083120313A0002008A1078030210239
:1008A000031C462C0425013083120313A0002008EA
:1008B000A207232CF600F7010830770203187E2CDC
:1008C0007608F5007703FF3A073E013E692C0310D6
:1008D000F50CFF3E031D672C751C722C831203134D
:1008E0000515752C831203130511F8240130F5004A
:1008F0007508F70708307702031C602C8316031372
:100900000515F824832C842C00008316031305118D
:100910000800831203133708031908003708B300CF
:100920003308B907B7013C303902031CAE2C390833
:10093000C43EB3003308B9000130B3003308BA072E
:100940003C303A02031CAD2CBA010130B30033082D
:10095000B807183038020318B8013C21DC2308001E
:10096000AE30EC248D30EC241430EC242030EC2418
:100970000030EC24A130EC24C830EC24DA30EC2434
:100980002230EC248130EC24FF30EC24AF30EC2416
:1009900008000C1DD02C0C110130F0007008B707B6
:1009A0007408FF0073088A0072088400710E8300C7
:1009B000FE0E7E0E0900F800F701781CE32C750886
:1009C000F6007608F7070310F50D0310F80C780809
:1009D000031DDD2C77080800F8000E258312031391
:1009E0003B085A2400305A2478085A240425080069
:1009F0000000831203138515FD2CFE2C00008312CA
:100A00000313851100000800831203138515082DB8
:100A1000092D000083120313051508008312031328
:100A20000511122D132D00008312031385110800E8
:020A3000783418
:02400E0018FF99
:00000001FF
